:040000006F00C06865
:1000040000000000000000006F0080086F00402026
:1000140000000000000000000000000000000000DC
:1000240000000000000000000000000000000000CC
:100034006F004006000000006F00E00500000000B3
:100044006F0080056F0060056F0040056F0020059C
:100054006F0000056F00E0046F00C00400000000A2
:100064006F0060046F0040046F0020046F00000400
:100074006F00E0036F00C003000000006F00600326
:100084006F0040036F0020036F0000036F00E00265
:1000940001A001A001A001A001A001A001A001A054
:1000A40001A001A001A001A001A001A001A001A044
:1000B40001A001A001A001A001A001A0B717004068
:1000C400930670052380D704130780FA2380E7047E
:1000D4000F10000003C6B7041376F60DA385C704FA
:1000E40023800704137605023DCA03C6A700118ABC
:1000F4001DE22380D7042380E7040F10000003C708
:10010400A700136747002385E7009307004B01000E
:100114000100FD17EDFFB71700409306700523801B
:10012400D704130780FA2380E7040F1000007D89A9
:100134002394A700010001000100010023800704AB
:100144002380D7042380E7040F10000037270040E2
:1001540093061005A303D7802380070482801376B7
:1001640005046DDE03C6A700418A1DE22380D7047F
:100174002380E7040F10000003C7A70013670701DB
:100184002385E7009307007D01000100FD17EDFFC3
:10019400B7170040930670052380D704130780FA2D
:1001A4002380E7040F1000007D8913650504239460
:1001B400A70001000100010001002380070423803F
:1001C400D7042380E7040F1000003727004093066C
:1001D400300549B74111814601468145114506C69E
:1001E4009D22B7170040130770052380E704130707
:1001F40080FA2380E7040F10000003C76704136725
:1002040017002383E70423800704B240410182805E
:1002140081460146814511453D22B71700409306AA
:1002240070052380D704130780FA2380E7040F1096
:1002340000007D562396C7022380D7042380E70459
:100244000F10000003C76704136717002383E70434
:100254002380070401A0BD473305F50201007D1585
:1002640075FD8280411122C426C206C6AA840144B7
:1002740063179400B24022449244410182800504F1
:100284001305803E4204C13F4180DDB7230304804F
:1002940095472303F4802302A4808280830764802B
:1002A400E3CE07FE23030480828083076480E3CEC9
:1002B40007FE03454480828083076480E3CE07FE03
:1002C4002302A4808280411126C44AC24EC006C6BD
:1002D4001377F50BAD47AA892E8995446306F70079
:1002E40019456D37653F8D444E854D37FD59FD14D5
:1002F40063983401B240A244124982494101828088
:10030400135509011375F50F453F2209CDB70111A6
:1003140026CC06CEB704080051371545853F713702
:1003240069372AC6A53F32459377150089EB1365D3
:1003340015001375F50FF240E24405618280FD1447
:10034400E9FC0145CDBF397126DC4ADA4ED852D6D4
:1003540056D45AD25ED062CEB7E700E006DE66CC51
:100364006ACA414783AB070422C6B8C37D5703ABAF
:10037400070083AA470023A0E71823A2E718B717AA
:100384000040130770052380E704130780FA2380D5
:10039400E70483C74704130C75FFB684E207137C94
:1003A400FC0F85462A8A2E89B28937240040E187CA
:1003B400015763FA86016308D500894613070002D2
:1003C4006313D5000157D98F93F7F70F371D0040FA
:1003D4002302FD0411472303E4801305F00F7D3548
:1003E400894C6D3D63EB8C11B70707003E99378745
:1003F40007007955637EE902B3079900636AF7023F
:10040400A947631CFA0689E48144493D26850DA069
:10041400CA8509454D3D850903C5F9FFFD14050944
:10042400613D81C49377F90FFDF7D53569FD7D559D
:10043400B7170040130770052380E704130780FAF9
:100444002380E70403C74704418B2382E704B7E70B
:1004540000E023A07705F25023A0671123A25711CF
:10046400E25432445259C259325AA25A125B825B44
:10047400724CE24C524D21618280A5476314FA0606
:1004840085699307F00FB3869700B374F900B694A7
:1004940093C7F7FFFD8C33F92701416A056C9387F5
:1004A400F9FFB3F7270199E363FC340193D94900B9
:1004B400C147E3E637FF89BF8567C169FD17E1B727
:1004C4001305800D638849011305000263848901C3
:1004D40013051008CA85C53B1D3D31D94E99B38417
:1004E4003441D9B7CA852D45F93BCE94E38E99F0B2
:1004F4008509653BA38FA9FED5BF9307FAFF93F740
:10050400F70F63ECFC0803475D04B7070800137793
:10051400070219E3B78707007955E37BF9F033073E
:100524009900E3E7E7F089476310FA048980554AA4
:10053400E38C04ECCA8509457933910903A7C9FF03
:1005440091472320E48003076480E34E07FE2303DE
:100554004481FD17EDFBFD14110981C49377F90F54
:10056400E9FF753371F5E1B58547E307FAF4CA8508
:100574002D45913B1389F4FFE38804E83D339377D9
:10058400390091EB8326048003A70900938749006F
:10059400E39DE6E6BE89CA84F1BFB5476316FA0057
:1005A4001305900BE5318DB5B1471305B00AE30B84
:1005B400FAFE9947631EFA02CA852D452933814400
:1005C4000D4C214ADD31639684018327048023A0E6
:1005D400F9008504E39844FF832704801317290155
:1005E400635507002392F90005B523A2F90029BD3C
:1005F4009D476319FA0281451305B004E931BD44EE
:1006040023A0090023A209007D59453193F7740002
:10061400CE9703C70700FD14398D2380A700E39606
:1006240024FFDDB3A1476312FA04D5318144630D7D
:1006340009008D479304C0036308F900930400057F
:1006440063049901930440041375C507E30E95DA16
:1006540019452D39A131054515392685B139094585
:10066400A1397531E31205DAD9B391476319FA0058
:100674001305600621391D311305900925B7E305DB
:080684000AD8F15459B300003B
:10068C00974100209381411D178100201301C196D1
:10069C00130540009735002093850516173600206A
:1006AC001306067E63FAC5008322050023A05500BD
:1006BC0011059105E3EAC5FE17450000130585B841
:1006CC0097450020938545931386018163FAC500F5
:1006DC008322050023A0550011059105E3EAC5FE10
:1006EC0013850181938581856377B50023200500EF
:1006FC001105E36DB5FE9302800873A002309732AA
:10070C0000209382620F93E21200739052303717DD
:10071C000040930770052300F704930780FA230029
:10072C00F7040F1000003C47B70600FAE116F58FEE
:10073C00B70600069506D58F3CC79712000093822A
:10074C00A26373901234730020303D432A87637385
:10075C00C3029377F700BDEFADE5937606FF3D8AB4
:10076C00BA960CC34CC30CC74CC74107E36BD7FEFE
:10077C0011E28280B306C3408A0697020000969667
:10078C006780A6002307B700A306B7002306B700AF
:10079C00A305B7002305B700A304B7002304B700D3
:1007AC00A303B7002303B700A302B7002302B700CB
:1007BC00A301B7002301B700A300B7002300B700C3
:1007CC00828093F5F50F93968500D58D9396050150
:1007DC00D58D61B793962700970200009696868276
:1007EC00E78086FA9680C1171D8F3E96E374C3F896
:1007FC00A5B7011122CC26CA4AC84EC652C406CE91
:10080C002A892E84B289368A8144EF10601B639D3D
:10081C0034016244F240D244B249224A4A854249E8
:10082C00854505616F10A011835604000357240001
:10083C004A85B6853A86EF10C0298504D2854A854B
:10084C00C204EF102012C1801104D1B7411126C28D
:10085C003287B684AE8622C406C62A84EF1060277F
:10086C0022852244B240A685924441016F10C01EDD
:10087C0063F7D5066375E606011122CC3308C74031
:10088C003384B6403304040306CE26CA4AC84EC687
:10089C0021C07D17FD164207C2064183C182AA847E
:1008AC00BE89EF1000232685EF1080110149CE85FB
:1008BC0026850509EF10000BE31B24FF6244F24070
:1008CC004249B2492685D244854505616F102007FF
:1008DC00F2406244D2444249B2490561828082802E
:1008EC00B1CA9387F5FF0111B6974AC8368993961A
:1008FC0007014EC6C182BA89328706CE22CC26CADF
:10090C002A84EF10001D2285EF10800B8144850492
:10091C00C204CE852285C180EF10C004E31999FE74
:10092C0022856244F240D2444249B2498545056170
:10093C006F10E0008280B1CA01119307F6FF4AC81C
:10094C003689CA974EC6BA8913970701AE8641837A
:10095C0006CE22CC26CA2A84EF10A0172285EF10CF
:10096C00200681448504C204CE852285C180EF0017
:10097C00707FE31999FE22856244F240D2444249C9
:10098C00B249854505616F00907B828039714ED6E6
:10099C005AD05ECE06DE22DC26DA4AD852D456D2A3
:1009AC0062CC66CA6AC86EC62A8BB689BE8B631DBA
:1009BC00E60263F5B600AE87BE89B685938619004C
:1009CC006254F250D2544259B259225A925A624C41
:1009DC00D24C424DB24D8D8E5E875A85F24B025BE6
:1009EC00C206C1822161EDBD3A89639DD502637552
:1009FC00C700B2873E893A86930619006254F250BA
:100A0C00D2544259B259225A925A624CD24C424D4B
:100A1C00B24D918E5E875A85F24B025BC206C18243
:100A2C00216111BF338AB6409357FA4133CA47014B
:100A3C00B30AC740330AFA4093D7FA41B3CA5701F5
:100A4C00B38AFA4013150A0193960A014185C186AF
:100A5C00854D63E33501FD5D054D636326017D5DC9
:100A6C009394050113140601C184418463DAA6082A
:100A7C00094933492503939C0401131C040193DC9D
:100A8C000C01135C0C01639D9902131604019395E0
:100A9C0004015A85DE86C18141824D3B6254F2507D
:100AAC00D2544259B259225A925AF24B624CD24CFD
:100ABC00424DB24D5A85025B854521616F0030680D
:100ACC00DE866286E6855A85330959414133931790
:100ADC000901C1831399070113590941635C09008A
:100AEC003306AC01338947011314060142094184D2
:100AFC0013590941B385BC0193940501C184A5BF69
:100B0C008949B3C93603939C0401131C040193DC7B
:100B1C000C01135C0C01E30A89F6DE866286E6851D
:100B2C005A85B38949411D3393970901C183939920
:100B3C00070193D9094163DC0900B385BC01B38972
:100B4C00570193940501C209C18493D90941330615
:100B5C00AC011314060141847DB7011126CAB3847C
:100B6C00B6408504C204C18022CC5AC03A84368B6C
:100B7C003E87A68606CE4AC84EC652C456C23E8989
:100B8C00328AAA89AE8AA93B2286050433044441E1
:100B9C004A87A686D6854E854204993341804A877A
:100BAC00A2865286D6854E857933A2866244F2405F
:100BBC00D244924A4A8752864249224ADA854E8565
:100BCC00024BB249056185BB63F5B6002E88B6852C
:100BDC00C2866375C70032883A8642870507850648
:100BEC004207C2064183C18261B139714ED656D2D9
:100BFC0006DE22DC26DA4AD852D45AD0AA89BA8A1E
:100C0C00F1CE93940601C1803289269642069397C1
:100C1C001400139B06014182BA860D441D8C2E8A4A
:100C2C003531330699404206D6864182D2854E85AF
:100C3C003139B3854401C205D6864A86C1814E85B9
:100C4C003131B3059A40C205D6864A86C1814E859C
:100C5C00F53E85454E85135B0B41EF00504E8144AC
:100C6C0093871400C207C1839394070113170401DF
:100C7C00C18441836354040813046700139727004D
:100C8C003A9413170B014183B38547013305E900EF
:100C9C003306FA40B306E940C20542054206C206D5
:100CAC00C18141814182C18242042310B1002311D0
:100CBC00A1002312C1002313A1002314B10023159A
:100CCC00D1002316C1002317D100418463159B0466
:100CDC00D68611468A854E85293E39A0BA86BD3600
:100CEC0085454E85EF00B045F2506254D2544259BE
:100CFC00B259225A925A025B216182809306FBFF01
:100D0C00C206C182139B06013384D740135B0B418F
:100D1C000A042907B5B7B306EA0033862701C206D1
:100D2C0042063307EA40B307F940C18241824207C9
:100D3C00C2074183C1832318D1002319C100231B8F
:100D4C00C100231CD1002146D6868A854E85231AE4
:100D5C00E100231DF100231EE100231FF100513C93
:100D6C00E3C064F151B779714AD04ECE06D622D485
:100D7C0026D252CC56CA5AC85EC662C466C22A89EA
:100D8C00BA899DE2BA86D9342254B2509254F249AF
:100D9C00624AD24A424BB24B224C924C4A8502597F
:100DAC00854545616F00B039AE8A93950601C181C6
:100DBC00939C060193961500B385BA400D44C20569
:100DCC00158CC1818506328A93DC0C41113E014C95
:100DDC00130B1C00420B135B0B01131C0B01931B1D
:100DEC000401135C0C4193DB0B0163570406138461
:100DFC006B00931B2B005E94939B0C0193DB0B01FC
:100E0C00B3847A41860B850BC204C20B33064B01AB
:100E1C00C18093DB0B0142064E87DE864182A6859C
:100E2C004A857D3C33066A41420642044E87DE8683
:100E3C004182A6854A8541846534E34B9CF9B250C6
:100E4C00225492540259F249624AD24A424BB24B52
:100E5C00224C924C4561828093940C0113141B001C
:100E6C00C180B38C6A41050433069A00C20C42045B
:100E7C0093DC0C0141804206A286E6854E874182B6
:100E8C004A85B93C33069A40FD14C204C18042061F
:100E9C00A286E6854E8741824A85939C04013304E1
:100EAC009B403D3C93DC0C410A04A90BA9B71D7176
:100EBC006AD8338DD602A6CA62DC5EDEBE8BA2CCAB
:100ECC00CAC8CEC6D2C4D6C2330CE70293572D4043
:100EDC00DAC086CE66DA6ED62A8AAE8A328B3A8928
:100EEC00B304A70301448149B3049C40BE94EF00B2
:100EFC00302D0D4833080C03B30CA903634A940539
:100F0C00330434039304F9FF931D1D00B38C2C039D
:100F1C00B3078D036694B384A4031D8CF957B38473
:100F2C00F402EA94130D0102635F090A6644F64069
:100F3C00D6444649B649964A064BF25B625CD25C93
:100F4C00425DB25D5285264A854525616F00301F92
:100F5C0013970901931709014183C183B386EA00F2
:100F6C00338667013387EA40B307FB40C20642066B
:100F7C004207C207C18241824183C1832318D10039
:100F8C002319C100231AE100231BC100231CD1002B
:100F9C00231DF100231EE100231FF100930D01011D
:100FAC0083D60D0003D72D005285B6853A8642C6EE
:100FBC00EF003032DE855285EF00D01A910D930888
:100FCC0001023248E39E1DFD63C80400B38CAC41A2
:100FDC00860C7D19B384944193171400C29785092C
:100FEC00BE94629411BF13970901931709014183B1
:100FFC00C183B30657013306FB003387EA40B307BE
:10100C00FB40C20642064207C207C18241824183AD
:10101C00C1832318D1002319C100231AE100231B1B
:10102C00C100231CD100231DF100231EE100231F4E
:10103C00F100930C010183D60C0003D72C005285D0
:10104C00B6853A86EF00F028DE855285910CEF00CC
:10105C007011E392ACFF634780008509B3073C0332
:10106C0086073E9426947D19EE947DBD5D716ECEFF
:10107C00B38DD6026AD056DABE8A8D485ED6BA8B4C
:10108C00CAC04EDE52DC330DE7025AD866D286C691
:10109C00A2C4A6C262D4AA892E8B328AB307B70324
:1010AC0013D72D400149814CB3081D03B307FD40F4
:1010BC00BA97338CBB03634589059384FBFFB384D8
:1010CC00B403795733049903330C7C03B387AD0312
:1010DC006294B384E4021D8C93971D00EE9463D943
:1010EC000B08B640264496440649F259625AD25A25
:1010FC00425BB25B225C925C025DF24D616182806C
:10110C0013940C01418033088B4093940B0106041B
:10111C00C180050442084204338644011358080177
:10112C0041804206C2855687A28641824E8546C6BC
:10113C003EC442C2EFF0CFFA124833069A40420640
:10114C005687A2864182C2854E85EFF06FF9A24781
:10115C00B24863C80700330CBC41060CFD1BB387B7
:10116C008741131719004697850CBA976A9991B75E
:10117C0013990C0113590901B30D2B41139C0B014D
:10118C000609135C0C010509C20D420933068A01DC
:10119C0093DD0D011359090142065687CA86418217
:1011AC00EE854E853EC2EFF0AFF333068A41420620
:1011BC005687CA864182EE854E85EFF06FF29247D4
:1011CC0063478000850C33079D0306073A942694E9
:1011DC00FD1BBE9429B7411126C2AE849305600352
:1011EC0022C406C62A84EF00300B85479305000AFB
:1011FC00638FF400814581CC89476388F4008D4767
:10120C006395F4009305000619A09305000C228544
:10121C002244B240924441016F009000411106C635
:10122C0022C42A84EF00407A81452285EF00E059E0
:10123C001305400697300020E780408285452285C3
:10124C00EF00A0581305400697300020E78000817E
:10125C0085452285EF00606313054006972000202A
:10126C00E780C07F85452285EF00100313056009D8
:10127C0097200020E780807EC5452285EF00D001B5
:10128C001305F00F97200020E780407D2285930501
:10129C00100BEF00700022858545EF0060782285E9
:1012AC009305C002EF00C07722859305D002EF00B2
:1012BC00207722859305200BEF00007E2285854543
:1012CC00EF00007622859305C002EF006075228541
:1012DC009305D002EF00C07422859305300BEF000C
:1012EC00A07B22858545EF00A07322859305C00263
:1012FC00EF00007322859305D002EF006072228507
:10130C008545EF00E07122859305C002EF00407126
:10131C0022859305D002EF00A07022859305400B27
:10132C00EF00807722859D45EF00806F2285930525
:10133C00000CEF00607622859305200AEF00406ECA
:10134C0022858945EF00C06D228593054008EF008A
:10135C00206D22859305100CEF00007422859305F7
:10136C00500CEF00E06B22859305200CEF00C0724F
:10137C002285A945EF00C06A22858145EF00406AAD
:10138C0022859305300CEF00207122859305A0086F
:10139C00EF00006922859305A002EF0060682285AA
:1013AC009305400CEF00406F22859305A008EF00D9
:1013BC00206722859305E00EEF0080662285930559
:1013CC00500CEF00606D2285B945EF0060658345D8
:1013DC00E4022285093522859305A003EF00C06B3A
:1013EC0022859545EF00C06322859305000EEF0022
:1013FC00A06A2285BD45EF00A0622285E945EF0079
:10140C0020622285BD45EF00A0612285E145EF00F9
:10141C00206122859305F002EF0080602285930500
:10142C008002EF00E05F228593050002EF00405F31
:10143C00228593052002EF00A05E2285FD45EF007A
:10144C00205E2285ED45EF00A05D228593053002DC
:10145C00EF00005D228593057003EF00605C228530
:10146C008145EF00E05B22859D45EF00605B2285A6
:10147C008945EF00E05A2285C145EF00605A22856C
:10148C009305100EEF0040612285BD45EF004059D9
:10149C002285ED45EF00C0582285BD45EF00405830
:1014AC002285DD45EF00C057228593053003EF0000
:1014BC00205722859305C002EF00805622859305A4
:1014CC009002EF00E05522859305E002EF004055B5
:1014DC00228593050003EF00A05422859305000399
:1014EC00EF000054228593059003EF006053228592
:1014FC009305F003EF00C05222858145EF00405266
:10150C0022859D45EF00C05122858D45EF0040514D
:10151C002285C145EF00C050CD452285EF00C05754
:10152C00294597200020E78060532285930590027F
:10153C00EF0080562244B240514541011723002050
:10154C006700C351411106C622C42A84B5298145BE
:10155C002285A52C1305400697200020E78000501B
:10156C00854522859D241305400697200020E780A1
:10157C00E04E85452285112E13054006972000204C
:10158C00E780C04D85452285012B130580079720E8
:10159C000020E780A04CC5452285FD291305800756
:1015AC0097200020E780804B8345E402228525317B
:1015BC0022859305A003CD21228595459521228571
:1015CC009305200BD1292285B14599292285B14556
:1015DC00812922858145A921228593053003892102
:1015EC002285930530032D2922859305700B6D21DF
:1015FC002285930520072D2122859305B00B69299F
:10160C0022859305D003292922859305000C692195
:10161C0022859305C002292122859305200CAD2932
:10162C0022858545F52E22859305300CB521228522
:10163C00E545FD2622859305400CB92922859305A5
:10164C000002F92E22859305600CB921228595455F
:10165C00C12E22859305000D812122859305400A18
:10166C00C12622859305100A652E22859305600DEF
:10167C00252122859305100A652622859305000EE7
:10168C00212922859305000D612E22859145492E35
:10169C002285B54571262285C54559262285CD451D
:1016AC00412622859305B002A52E22859305F003D1
:1016BC00852E228593054005A52622859305C00419
:1016CC0085262285E145A92E2285B545912E2285B8
:1016DC00AD45B9262285FD45A1262285930530020C
:1016EC00812622859305100E452E22859305000D2B
:1016FC00052E228591452D262285B145152622855C
:10170C00C545392E2285CD45212E22859305C00253
:10171C00012E22859305F003212622859305400492
:10172C000126228593051005E52C22859305F002F0
:10173C00C52C2285FD45ED242285FD45D524228529
:10174C0093050002F12C228593053002D12C2285C1
:10175C00930510029126228593059002352E224482
:10176C00B24051454101172300206700232F09C9BE
:10177C008347C50291C78347D50293F7F70FDDBFA7
:10178C0082808567938707801CD5930700202317D9
:10179C00F50285470CC12302C50014C5232205029E
:1017AC002308F50282802306B50010C9230AD50050
:1017BC0018CD230EF5002320050382802307B502E4
:1017CC00A307C5022308D5028280034745011C4D9F
:1017DC00B716004011EF99C503A7860AD98F23A429
:1017EC00F60A828003A7C60AD98F23A6F60A82803E
:1017FC0099C503A7860CD98F23A4F60C828003A766
:10180C00C60CD98F23A6F60C82800347C5001C4951
:10181C00B716004011EF99C503A7860AD98F23A4E8
:10182C00F60A828003A7C60AD98F23A6F60A8280FD
:10183C0099C503A7860CD98F23A4F60C828003A725
:10184C00C60CD98F23A6F60C8280034745001C4595
:10185C00B716004011EF99C503A7860AD98F23A4A8
:10186C00F60A828003A7C60AD98F23A6F60A8280BD
:10187C0099C503A7860CD98F23A4F60C828003A7E5
:10188C00C60CD98F23A6F60C82800347C5011C51C8
:10189C00B716004011EF99C503A7860AD98F23A468
:1018AC00F60A828003A7C60AD98F23A6F60A82807D
:1018BC0099C503A7860CD98F23A4F60C828003A7A5
:1018CC00C60CD98F23A6F60C82802DC91C410111A0
:1018DC0022CC06CE26CA4AC84EC62A84A9CB21CA17
:1018EC00B9C5B6893289AE84593585452285313FD3
:1018FC0081452285993F8347C4028DC78547A3063E
:10190C00F402CA852685EF00100F63820902228536
:10191C00B93D22856244F240D2444249B2498545E0
:10192C00056125B7CA852685EF00F00CDDB7F240BE
:10193C006244D2444249B24905618280828015C119
:10194C00AE864C51411122C406C62A8499C5035651
:10195C00A50201C69D3F23150402B2402244410159
:10196C008280828029CD5C51411122C406C626C2D8
:10197C002A84A9C3835785020357A502AE84FD1799
:10198C006344F7008145653F0357A4025C509306FE
:10199C0017002315D402BA9713D784002380E700CD
:1019AC000357A4025C50930617002315D402BA9770
:1019BC0023809700B240224492444101828082806D
:1019CC0019C123150502828039C91C41A9CB5C5170
:1019DC00411122C406C62A8485C78D451D65231571
:1019EC000402EF006069EF00E07D938701819C4366
:1019FC0023060402A306040291EF23A8818039A0D8
:101A0C0003558502EF00701348D061F9B2402244AF
:101A1C004101828098431C40E31AF7FEF9BF828093
:101A2C00011106CE22CCA307B1001DC11C412A8492
:101A3C0085C3353B85452285C93B8145228531359A
:101A4C0085451305F100EF00007B85452285F53BAC
:101A5C00F2406244056182801DCD1C41011122CCF3
:101A6C0006CE2A848DC793978500A181DD8D231620
:101A7C00B100F53985452285493B81452285F133F5
:101A8C0089456800EF002077854522857D3BF24033
:101A9C006244056182808280011106CE22CCA307AC
:101AAC00B10005C51C412A848DC38545493D81453E
:101ABC002285A13B81452285493B85451305F100D3
:101ACC00EF006073854522854933F240624405611D
:101ADC00828045CD011126CAAE84854506CE22CC26
:101AEC004AC82A844EC652C43A89368AB289813D84
:101AFC009305A00222854D378347E40293F7D70F55
:101B0C00ADE38345F4022285A695C205C181A937B0
:101B1C008345F402D295C205C1812285353F9305D8
:101B2C00B0022285953F8347E40293F7D70FA1E7D4
:101B3C00834504032285CE95C205C181313F83457F
:101B4C000403CA95C2052285C181393722856244B6
:101B5C00F240D2444249B249224A9305C00205617F
:101B6C0025BF834504032285A695C205C181ED35A9
:101B7C008345040345B78345F4022285CE95C205FF
:101B8C00C181D93D8345F4026DBF82808E050D82E3
:101B9C0093F5057E2205D18D137505804D8D8280C0
:101BAC005D71A2C4A6C25ED662D4BE8B86C6CAC004
:101BBC004EDE52DC56DA5AD866D26AD06ECE3AC6AF
:101BCC00C147AA843684468C6300F80AB147630384
:101BDC00F80A194D9727000093870766130704FE30
:101BEC001377F70F9306E00583C9170003C90700A5
:101BFC0063F4E60013040002011442044180330430
:101C0C00A403130A7900C20942091307F6FF93864D
:101C1C00F5FF93D90901135909014A97CE96135A26
:101C2C003A404207C20683AC470041839377FA0FD0
:101C3C00C18226853EC2713D268566945133814C06
:101C4C00A14D63EB3C092644B6400649F259625A51
:101C5C00D25A425BB25B225C925C025DF24D2685ED
:101C6C00964485456161E1B9414D97270000938702
:101C7C00275CADB7314D972700009387E75AB9BF62
:101C8C00B306540183C70600139D3A00420D3EC4AF
:101C9C00135D0D01014B33066D0142064182637DDC
:101CAC002601A24733D66741058A1DC2B245268557
:101CBC005539050BE311BBFF850A924793F6FA0FD2
:101CCC00E3E0F6FC850CC20C93DC0C01529495BF3E
:101CDC00E3110CFEDE85E1BF814AC5B75D71A2C47C
:101CEC00A6C2CAC04EDE52DC56DA5AD85ED662D4D0
:101CFC0066D26AD06ECE86C6AA892E84328AB68403
:101D0C00BA8A3E8B4289C68B414CB14C172D0000D0
:101D1C00034D9D52972D000083CD1D5117230000BC
:101D2C000343135183C6040085E2B640264496440F
:101D3C000649F259625AD25A425BB25B225C925CFF
:101D4C00025DF24D61618280DA87DE884A885687AF
:101D5C005286A2854E851AC6A13532439A876306F0
:101D6C008901EA8763139901EE873E94420441800E
:101D7C0085044DBF39711305800406DE22DC26DA9A
:101D8C00371400404AD84ED652D456D25AD05ECED2
:101D9C0062CC97200020E780E0B18327840A854538
:101DAC001305001093E707202324F40AF1248D4532
:101DBC0013050020D124892B83451404172500001A
:101DCC00130505360564EF00006F8D4505656D2420
:101DDC00130504808D454D248D4513050040692C59
:101DEC008D4537054000252E85660146938541813A
:101DFC0013850182EFF0FF98130704803708400029
:101E0C008547814613060040814513850182416B4D
:101E1C00A16AEFF05F99014A138401829309FBFFD9
:101E2C00130C000A97240020938404231389418007
:101E3C00972B0000938BCB31FD1A050A93771A0070
:101E4C00639F071E8146014681452285EFF01F974F
:101E5C002285EFF02FEF81474E8781484148972626
:101E6C0000009386262D5146D1452285853D93074A
:101E7C000014172700202321F71E9307000F23A21D
:101E8C00F18003D704008356090093070B80228549
:101E9C00130680028145EFE0BF9D03D704008356F3
:101EAC00090022859307007E130680028145EFE02E
:101EBC003F9C03D70400835609002285FD47130677
:101ECC0080028145EFE0DF9A4E87DE8622858148CD
:101EDC004148814713068002D14509358148414864
:101EEC00CE87DE86228501471306C003D145FD331C
:101EFC0083D604004E87228513068002A945EFE0A5
:101F0C009FA398408326090022851307A7FB93867D
:101F1C00A6FB4207C206FD474183C1821306A005FA
:101F2C00F945EFE09FC39840832609009307007E94
:101F3C003117B1164207C20622854183C1821306AE
:101F4C00000AF945EFE05FC88326090098401306A4
:101F5C00800CFD167D17C2064207C1824183930592
:101F6C00C003514536C63AC4EFF05FC22247B246B1
:101F7C00AA871306800222858145EFE03FA190409D
:101F8C008325090089473346F60213077BC0228557
:101F9C00F946B3C5F50242064182C205C181EFE0A4
:101FAC00DFC49040832509008D473346F6025687DF
:101FBC002285D146B3C5F50242064182C205C181D4
:101FCC00EFE07FDA90408325090091473346F60213
:101FDC00228579479306C003B3C5F5024206CE8726
:101FEC004182C205C181EFE09FEC9040832509003E
:101FFC009307F07F1306E6FC9385E5FC4206C205C9
:10200C005147930620034182C1812285EFF00F8650
:10201C001305007D97200020E78040A403D704001F
:10202C00835609002285814701468145EFE05F8494
:10203C00D2851725000013052512B529FDBB854651
:10204C00094689452285EFF06FF72285EFF00F9D49
:10205C008147814841484E87972600009386860E1B
:10206C005146D1452285EFF07FC79727002023A545
:10207C0087FF9307000821B5914763EEB702172736
:10208C0000001307270E8A05BA959C41BA978287E0
:10209C00B717004003A7470B1345F5FF698F23AA19
:1020AC00E70A03A7070B698F23A8E70A03A7070A08
:1020BC00798D23A0A70A8280B717004083A6470B0F
:1020CC001347F5FFF98E23AAD70A83A6070B558D64
:1020DC0023A8A70A83A6070A758F23A0E70A828084
:1020EC00B717004003A7470B498F23AAE70A03A79A
:1020FC00070B1345F5FF45BFB717004083A6470BE9
:10210C001347F5FF758F23AAE70A03A7070A598D12
:10211C004DB7B717004003A7470B498FEDB7914751
:10212C0063EEB70217270000130707058A05BA9557
:10213C009C41BA978287B717004003A7470D1345F8
:10214C00F5FF698F23AAE70C03A7070D698F23A856
:10215C00E70C03A7070C798D23A0A70C8280B71777
:10216C00004083A6470D1347F5FFF98E23AAD70C21
:10217C0083A6070D558D23A8A70C83A6070C758F76
:10218C0023A0E70C8280B717004003A7470D498FA7
:10219C0023AAE70C03A7070D1345F5FF45BFB71797
:1021AC00004083A6470D1347F5FF758F23AAE70C54
:1021BC0003A7070C598D4DB7B717004003A7470D60
:1021CC00498FEDB7B74700401147A381E700094796
:1021DC002380E700130700062380E70003C71700DE
:1021EC0013670701A380E70003C717001377E70FF6
:1021FC00A380E7008280B747004003C7070013772E
:10220C00F70E2380E700131705012E954183420535
:10221C00239CE7004181239EA7002396B700254706
:10222C002383E70003C7170013671700A380E70099
:10223C0003C76700058B6DDF03C717001377E70F24
:10224C00A380E7008280B717004003D587004205C2
:10225C0041819377050491EB9377F5013755E801AC
:10226C00130505803345F50282809377050C13071F
:10227C0000046397E7009377F50137459C1CCDB7B5
:10228C002165130505D08280814737370040A14670
:10229C0063C4C700328582800345B740E38EA6FE37
:1022AC003385F5000345050085072304A740CDB70A
:1022BC00938781809C43138781853E95636CE500F1
:1022CC0017670020130747B36366A70023A4A180F8
:1022DC003E858280FD57EDBF411122C406C62A847B
:1022EC009D372947B307E502B2408D83B3D78702E8
:1022FC0022449507B3D7E70237370040C207C183A2
:10230C002316F740410182807165411113050520A8
:10231C0006C6D937B7370040130770F82381E7405A
:10232C000D47A381E74013070004A380E74005474E
:10233C002387E740B240410182809387C180AA8500
:10234C0088435DA0CDC183A7C5FF411122C406C639
:10235C0026C21384C5FF63D307003E94AA84C52EFE
:10236C00938781819C4399EB2322040023AC8180C9
:10237C002244B240268592444101D9AE637EF400DA
:10238C0014403307D4006396E7009843DC43369738
:10239C0018C05CC0E1BFBA87D84319C3E37DE4FE23
:1023AC0094433386D700631F86001040B29694C3C3
:1023BC003386D700E31EC7FA10435843B29694C332
:1023CC00D8C37DB76375C400B1479CC055B71040E6
:1023DC00B306C4006316D70014435843B29614C016
:1023EC0058C0C0C371B78280011126CA93843500CE
:1023FC00F19806CE22CC4AC84EC6A104B14763F16F
:10240C00F404B14463E0B4042A8991269387818152
:10241C0098433A8431E09387C1819C4391E781458D
:10242C004A85C92823AEA180A6854A85E120FD599D
:10243C0063173507B1472320F9004A85112E29A0CF
:10244C00E3D204FCB1471CC10145F2406244D244C2
:10245C004249B249056182801C40858F63CE0702D8
:10246C00AD4663F6F6001CC03E9404C031A05C403F
:10247C006312870223ACF1804A85D92C1305B40072
:10248C009307440061993307F54061D33A94898FDF
:10249C001CC065BF5CC3CDB722874040A5BF1304E9
:1024AC0035007198E30385FCB305A4404A85992057
:1024BC00E31D35FB41B739713EDA2ED232D436D614
:1024CC003AD842DC46DE9387C18022CC804326CAB0
:1024DC0006CEAA8409C41C4C99E32285F5280C4429
:1024EC0054102686228536C6D12CF2406244D24442
:1024FC0021618280411122C42A842E8523AA018461
:10250C0006C6EFF0FFDAFD576317F5009387418598
:10251C009C4391C31CC0B2402244410182804111B2
:10252C0022C406C62A842316B5002317C50023200F
:10253C000500232205002324050023220506232859
:10254C000500232A0500232C05002146814513058F
:10255C00C505EFE08F9F971700009387C78B5CD062
:10256C00971700009387278E1CD49717000093872A
:10257C0067925CD4971700009387279500D01CD8DE
:10258C00B240224441018280971500009385A5CA70
:10259C0089AA411126C2130680069384F5FFB384E1
:1025AC00C4024AC02E8922C406C6938544072D3D19
:1025BC002A8401CD2320050023222501310508C4DE
:1025CC00138684068145EFE04F982285B240224461
:1025DC0092440249410182801C4DBDE3411106C663
:1025EC0022C497070000938767FA1CD59727000031
:1025FC00938707C59C43232405042326050423281D
:10260C0005046314F50085471CCD2A841D2848C099
:10261C002285052808C422852D2048C4484001463F
:10262C009145F53D08440546A545D53D4844094628
:10263C00C945F53585471CCCB24022444101828006
:10264C008280411197270000938787BF26C284435D
:10265C004AC006C69C4C22C42A8999E32685AD3F04
:10266C00938484048044DC40FD1763D607009C40AF
:10267C00B9CF8440C5BF0317C40039E7C1778507BC
:10268C002322040623200400232204002324040014
:10269C005CC423280400232A0400232C04002146B4
:1026AC0081451305C405EFE04F8A232A0402232C2D
:1026BC00040223240404232604042285B240224469
:1026CC0092440249410182801304840671BF9145F2
:1026DC004A85C13588C051FDB1472320F90001441A
:1026EC00E9BF797122D44AD052CC56CA5AC85EC6B8
:1026FC0006D626D24ECE2A8AAE8A13048504014908
:10270C00054BFD5B09ECB25022544A859254025998
:10271C00F249624AD24A424BB24B45618280044430
:10272C0083294400FD1963D409000040E1BF83D71D
:10273C00C400637BFB008397E40063877701A68565
:10274C005285829A3369A90093848406E1BF828002
:10275C0082801C46FD171CC663D90700184E63C542
:10276C00E700A9476393F50095A71C422E851387B4
:10277C00170018C22380B7008280011122CC26CA10
:10278C004AC84EC652C406CE2A89AE893284B304D6
:10279C00D6007D5A63149400014509A883450400B2
:1027AC004E864A857D370504E31645FFF2406244A8
:1027BC00D2444249B249224A05618280357122CD08
:1027CC0026CB4AC94EC706CF52C556C35AC1DEDE08
:1027DC00E2DCE6DAAA89AE843289368409C51C4D5E
:1027EC0099E3EFF07FDF972700009387279C639C8A
:1027FC00F40C83A4490083D7C400A18BFDC79C486B
:10280C00EDC793070002A304F1029307000302D261
:10281C002305F10222C6930B5002972A0000938ADB
:10282C00EA9C054C294B4A848347040099C3639066
:10283C00770FB30C2441638D0C00E6864A86A6857F
:10284C004E85253FFD576308F51E9256E69636D207
:10285C00834704006381071EFD571309140002C847
:10286C0002CE3ECA02CCA309010482D483450900DE
:10287C0015465685EF00703413041900C24751E910
:10288C0013F7070109C713070002A309E10413F7A3
:10289C00870009C71307B002A309E10483460900A6
:1028AC001307A002638FE606F2474A848146254649
:1028BC000347040093051400130707FD6378E60A29
:1028CC00ADCA3ECEBDA09727000093872790639595
:1028DC00F40083A4890005B7972700009387078B22
:1028EC00E39BF4F083A4C90039B7A6854E85F9257E
:1028FC0009D97D55FA406A44DA444A49BA492A4A08
:10290C009A4A0A4BF65B665CD65C0D6182800504C4
:10291C0021BF330555413315AC00C98F3EC8228900
:10292C00B1B7324793064700184336C663490702CE
:10293C003ACE034704009307E002631FF7040347F2
:10294C0014009307A002631BF702B2470904138714
:10295C0047009C433AC663C107023ECA35A83307F9
:10296C00E04093E727003ACE3EC8E1B7B387670350
:10297C0085462E84BA972DBFFD57C5B7050402CAEC
:10298C00814681472546034704009305140013072D
:10299C0007FD6378E606F1F2834504000D46172522
:1029AC00000013052585EF00502111CD972700005D
:1029BC00938747841D8D93070004B397A700424566
:1029CC0005045D8D2AC883450400194617250000AF
:1029DC0013058582130914002304B102EF00F01DC6
:1029EC003DC197D7FFFF9387276195E74247B247D1
:1029FC001377071009CF91073EC69257D2973ED254
:102A0C001DB5B387670385462E84BA97ADBF9D0766
:102A1C00E19BA107D5B7780097060000938626D6D0
:102A2C0026860C084E8597000000E7000000FD5735
:102A3C002A8AE314F5FC83D7C40093F70704E39ABE
:102A4C0007EA125545BD780097060000938626D3F9
:102A5C0026860C084E85012AD9BF797156CA9C4925
:102A6C00BA8A984522D426D24ECE52CC06D64AD01B
:102A7C005AC85EC6AA892E84B284368A63D3E7000C
:102A8C00BA879CC00347340419C385079CC01C40FB
:102A9C0093F7070281C79C4089079CC00329040057
:102AAC0013796900631A0900130B9401FD5B5C44F4
:102ABC009840998F634CF9041C408346340493F777
:102ACC000702B336D000A5EB13063404D2854E852D
:102ADC00829AFD576303F5041C4011469840998B6C
:102AEC00544481446397C700B384E64063D3040025
:102AFC0081441C4418486354F700998FBE940149D3
:102B0C0069047D5B63982405014509A885465A86AE
:102B1C00D2854E85829A631E75017D55B250225422
:102B2C0092540259F249624AD24A424BB24B456125
:102B3C0082800509ADBF3307D40013060003A3013F
:102B4C00C7040347540493871600A2978906A381F0
:102B5C00E7049DBF85462286D2854E85829AE30E78
:102B6C0065FB050945B7797122D426D24AD04ECEE1
:102B7C0006D652CC56CA5AC8B68983C68501930765
:102B8C0090063289AA842E8413863504638DF6024E
:102B9C0063E2D706930780056389F61863EDD700C7
:102BAC006382062293073004638FF60A930A240487
:102BBC002301D404D1A0930730066386F60A930749
:102BCC004006E395F6FE1C40084393F60708930570
:102BDC004500CDC61C410CC363D807001307D002B7
:102BEC00B307F040A301E4049716000093864661F6
:102BFC00294775A8930700076385F61663E5D70286
:102C0C009307E006638CF6189307F006E390F6FA48
:102C1C000C401C4313F8050813854700630808068D
:102C2C0008C39C4395A893075007E383F6FE9307CC
:102C3C008007638CF61293073007E399F6F61C4372
:102C4C00D04181459386470014C383AA070056855B
:102C5C00EF00A07601C53305554148C05C401CC847
:102C6C00A301040471A81C43930A2404938647000F
:102C7C009C4314C32301F4048547D5B793F607048A
:102C8C001C410CC3B1DAC207C187B9B793F505046F
:102C9C0008C3C1D983D707001307F0066388E60E73
:102CAC00971600009386C6552947A30104044C408F
:102CBC000CC463C5050008406D9908C099E3B28A3D
:102CCC0091CDB28AB3F5E702FD1AB69583C505001E
:102CDC002380BA00B3D5E70263F0E70CA147631E6B
:102CEC00F7001C40858B91CB58401C4863C7E7000C
:102CFC0093070003A38FFAFEFD1A3306564110C842
:102D0C004E87CA867000A2852685EFF01FD57D5AA6
:102D1C00631E450B7D55B250225492540259F24910
:102D2C00624AD24A424B45618280A382D5049716EF
:102D3C0000009386E64C0C40084313F805081C4130
:102D4C001105630D080208C313F7150001C793E5BD
:102D5C0005020CC04147B1FB0C4093F5F5FD0CC0CE
:102D6C00A9B79C4193E707029CC193078007A30274
:102D7C00F404971600009386E64975BF13F8050412
:102D8C0008C3E30308FCC207C1837DBF971600008C
:102D9C0093860647214711BFAE872DB794411C433C
:102DAC00CC4913F80608138547006306080008C3CE
:102DBC009C438CC301A808C393F606049C43F5DA24
:102DCC002390B70023280400B28A1DBF14485686EE
:102DDC00CA8526858299E30F45F31C40898B8DE7C4
:102DEC00B2474844E359F5F23E8535B785465686D9
:102DFC00CA8526858299E30F65F1050A5C44324742
:102E0C00998FE345FAFEE9BF014A930A94017D5B71
:102E1C00F5B7411122C42E848395E50006C65D2BBF
:102E2C00634905007C48AA977CC8B2402244410102
:102E3C0082808357C4007D777D17F98F2316F400A9
:102E4C00EDB783D7C500011122CC26CA4AC84EC69D
:102E5C0006CE93F70710AA842E843289B68991C7BF
:102E6C008395E5008946014605298357C4007D7783
:102E7C007D17F98F2316F4008315E4006244F240A9
:102E8C00CE864A86B24942492685D244056101A2C2
:102E9C00411122C42E848395E50006C6F52EFD57FC
:102EAC000357C400631BF500FD77FD17F98F23163C
:102EBC00F400B2402244410182808567D98F2316E9
:102ECC00F40068C8FDB78395E50009A4011122CC74
:102EDC0026CA4AC806CE4EC6AA842E89328409C593
:102EEC001C4D99E3EFF04FEF971700009387072CD9
:102EFC006319F406C0401C4C1CC48357C400A18B3E
:102F0C00C9C31C48BDCF1C4808409379F90F1379ED
:102F1C00F90F1D8D5C486346F500A2852685112EA0
:102F2C002DE51C440505FD171CC41C401387170018
:102F3C0018C0238037015C486389A7008357C400FD
:102F4C00858B81CBA9476316F900A2852685D524EC
:102F5C000DEDF24062444A85D2444249B2490561C2
:102F6C00828097170000938767266314F4008044CF
:102F7C0059B79717000093876721E31EF4F6C044F6
:102F8C009DBFA28526851D283DDD7D59D9B74111F0
:102F9C0022C42A842E85B285368623AA018406C6CD
:102FAC00EFF08FAEFD576317F500938741859C4377
:102FBC0091C31CC0B24022444101828041119387CD
:102FCC00C18026C2844322C44AC006C62A892E84E4
:102FDC0091C49C4C81E72685EFF00FE09717000019
:102FEC009387C71C631CF402C0400317C4009317DB
:102FFC000701C18393F68700BDEE93F607019DEEA2
:10300C00A5472320F900136707042316E4007D5518
:10301C00B240224492440249410182809717000039
:10302C009387C71A6314F4008044C1B79717000044
:10303C009387C715E31BF4FAC04445BF918B95C722
:10304C004C5891C9930744046385F5004A85EFF009
:10305C006FAF232A04028357C4002322040093F782
:10306C00B7FD2316F4001C481CC08357C40093E71B
:10307C0087002316F4001C4881EF8357C400130704
:10308C00002093F707286385E700A2854A857924F9
:10309C008357C40013F7170005C75C4823240400AA
:1030AC00B307F0401CCC1C480145BDF38317C4008A
:1030BC0013F7070831DF93E707042316F40081BFE9
:1030CC00898B014791E3584818C4F1BF411122C4C0
:1030DC002A842E8523AA018406C6A52EFD576317C4
:1030EC00F500938741859C4391C31CC0B240224498
:1030FC004101828083D7C500011122CC26CA06CE9D
:10310C004AC84EC613F78700AA842E8479EFD8419B
:10311C00634DE000B841634AE0000145F24062446F
:10312C00D2444249B2490561828058547DD703A9E3
:10313C0004009396370123A0040063DE0606704852
:10314C008357C400918B99C75C401D8E5C5899C302
:10315C003C401D8E5C540C50814626858297FD5751
:10316C000357C400631DF5009440F54763E9D70687
:10317C00B70740208507B3D7D700858BADC31C4854
:10318C00232204001CC09317370163D80700FD5796
:10319C006314F5009C4091E368C84C5823A02401AB
:1031AC00ADDD930744046385F5002685EFF08F9918
:1031BC00232A04029DB70C500146854626850297AA
:1031CC00FD572A86E31EF5F69C40BDDB75476385EB
:1031DC00E70059476394E70423A024013DBF13671C
:1031EC0007042316E4007D5515BF83A90501E3866A
:1031FC0009F203A905008D8B23A035013309394150
:10320C00014791E3D84918C4E35920F11C540C50E0
:10321C00CA864E86268582976349A0008357C400D0
:10322C0093E707042316F4007DBFAA993309A9403C
:10323C00E1BF9C49A5C3011122CC06CE2A8419C535
:10324C001C4D89E72EC6EFF02FB9B2459717000039
:10325C009387C7F5639BF5004C408397C50095C7D2
:10326C0022856244F240056171B59717000093877F
:10327C00E7F56394F5000C44CDB7971700009387DE
:10328C00E7F0E39CF5FC4C44C9BFF24062440145B5
:10329C000561828001458280411122C42A842E85D9
:1032AC00B285368623AA018406C6F122FD57631720
:1032BC00F500938741859C4391C31CC0B2402244C6
:1032CC00410182801971A6DAAE848395E500A2DCF7
:1032DC0086DE328463DC050083D7C40023A006009D
:1032EC0093F707089DE39307004015A0300836C6F6
:1032FC00012AB246E34205FE7247BD67F98F797722
:10330C00BA9793B717009CC2F9BF930700041CC06F
:10331C00F6506654D65401450961828083D7C500A6
:10332C00011122CC06CE26CA4AC8898B2E8489CF9D
:10333C00930774041CC01CC885475CC8F2406244E7
:10334C00D24442490561828074003000AA849D3FBA
:10335C00A2452A892685EFF02F8901ED8317C40039
:10336C0013F7072061FFF19B93E727002316F40066
:10337C00C1B797F7FFFF938767219CD48357C4008D
:10338C0008C008C893E707082316F400A2475CC8D6
:10339C00B24789CF8315E4002685412801C983579C
:1033AC00C400F19B93E717002316F4008357C40065
:1033BC003369F9002316240151B793F5F50F2A96BA
:1033CC006314C5000145828083470500E38DB7FE79
:1033DC000505FDB7411122C42A842E85B285368697
:1033EC0023AA018406C67128FD576317F50093873D
:1033FC0041859C4391C31CC0B24022444101828050
:10340C00411122C42A842E85B28523AA018406C6C2
:10341C00B920FD576317F500938741859C4391C3F1
:10342C001CC0B240224441018280411122C42A8432
:10343C002E8523AA018406C60D28FD576317F500B7
:10344C00938741859C4391C31CC0B24022444101E7
:10345C0082809307800523AAF1847D55828093078F
:10346C00800523AAF1847D5582809307800523AAC9
:10347C00F184014582809307800523AAF1847D5550
:10348C0082809307800523AAF1847D5582800000F9
:10349C000000000000000000000000000000FC0024
:1034AC000000000002000000000C020C02000000F2
:1034BC000000000090D0BCD0BC90000300030000C2
:1034CC001824FE448C000302070201001824D8B013
:1034DC004C80000300010201C038E438E000010216
:1034EC0002010202080600000000000000000000BB
:1034FC00000000F80402000000010204000204F8BD
:10350C0000000004020100009060F86090000000D0
:10351C00010000002020FC20200000000100000021
:10352C000000000000000806000000002020202001
:10353C00200000000000000000000000000000025D
:10354C00000000000080601C02000403000000006A
:10355C00F8040404F8000102020201000008FC0057
:10356C000000000203020000188444241800030227
:10357C000202020008042424D80001020202010005
:10358C0040B088FC80000000000302003C2424248E
:10359C00C400010202020100F824242CC000010224
:1035AC00020201000C04E41C0400000003000000F3
:1035BC00D8242424D80001020202010038444444D7
:1035CC00F8000003020201000000100000000000DF
:1035DC0002000000000020000000000006000000B7
:1035EC00002050880402000000000102909090908E
:1035FC00900000000000000000020488502000022F
:10360C00010000001804C42418000000020000008F
:10361C00F804E494F80001020202020000E09CF0BD
:10362C00800002030000030204FC2424D8000203DF
:10363C0002020100F80404040C0001020202010061
:10364C0004FC0404F80002030202010004FC2474CC
:10365C000C0002030202030004FC24740C0002039D
:10366C0002000000F0080444CC40000102020100FA
:10367C0004FC2020FC040203000003020404FC04EC
:10368C000400020203020200000404FC0404060409
:10369C000403000004FC24D00C0402030200030207
:1036AC0004FC04000000020302020203FC3CC03CC8
:1036BC00FC0003000300030004FC30C4FC04020300
:1036CC0002000300F8040404F800010202020100E5
:1036DC0004FC24241800020302000000F884840473
:1036EC00F80001020207050004FC246498000203A0
:1036FC0002000302182424448C000302020201007D
:10370C000C04FC040C0000020302000004FC00008A
:10371C00FC04000102020100047C80E01C04000097
:10372C00030000001CE03CE01C0000030003000050
:10373C00049C609C0400020300030200041CE01CB7
:10374C0004000002030200000C84641C0400020349
:10375C00020203000000FE02020000000704040045
:10376C00000E30C00000000000010200000202FE4A
:10377C000000000404070000000402040000000024
:10378C0000000000000000000000080808080808FD
:10379C000000020000000000000000000040A0A09B
:1037AC00C00000010202030204FC2020C000000340
:1037BC000202010000C02020600000010202020091
:1037CC0000C02024FC0000010202030200C0A0A0E3
:1037DC00C0000001020202000020F82424040002B0
:1037EC00030202000040A0A0602000070A0A0A049D
:1037FC0004FC2020C0000203020003020020E400AD
:10380C000000000203020000000020E40000080891
:10381C000807000004FC80E02020020302000302E1
:10382C000404FC000000020203020200E020E0207D
:10383C00C00003000300030020E02020C0000203AE
:10384C000200030200C02020C0000001020201009F
:10385C0020E02020C000080F0A02010000C0202038
:10386C00E0000001020A0F0820E0402020000203C3
:10387C00020000000060A0A0200000020202030071
:10388C000020F820000000000102020020E00020CF
:10389C00E00000010202030220E020806020000012
:1038AC00030100006080E080600000030003000062
:1038BC0020608060200002030003020020E02080D2
:1038CC0060200808070100000020A0602000000212
:1038DC0003020200000020DE0200000000070400CA
:1038EC00000000FF00000000000F00000002DE20BE
:1038FC0000000004070000000201020404020000A2
:10390C0000000000000000000000000000000000AB
:10391C000000000000000008080808080808000063
:10392C001818000000486C24120000000000000071
:10393C00000000000000002424247F1212127F12C9
:10394C00121200000000081C2A2A0A0C1828282A27
:10395C002A1C080800000022251515152A58545455
:10396C00542200000000000C1212120A76252911B4
:10397C00916E000000060604030000000000000029
:10398C00000000000040201010080808080808106B
:10399C00102040000002040808101010101010082D
:1039AC00080402000000000008086B1C1C6B0808CF
:1039BC000000000000000000080808087F08080844
:1039CC0008000000000000000000000000000000E3
:1039DC00060604030000000000000000FE000000CA
:1039EC0000000000000000000000000000000000CB
:1039FC00060600000000804040202010100808043B
:103A0C000402020000000018244242424242424298
:103A1C0024180000000000080E0808080808080810
:103A2C00083E00000000003C4242422020100804E6
:103A3C00427E00000000003C4242201820404042E0
:103A4C00221C0000000000203028242422227E208A
:103A5C00207800000000007E0202021A264040423C
:103A6C00221C0000000000382402021A26424242A6
:103A7C00241800000000007E2222101008080808FC
:103A8C00080800000000003C424242241824424234
:103A9C00423C00000000001824424242645840405E
:103AAC00241C00000000000000001818000000009A
:103ABC0018180000000000000000000800000000C2
:103ACC00000808040000004020100804020408103C
:103ADC00204000000000000000007F0000007F007C
:103AEC000000000000000002040810204020100814
:103AFC00040200000000003C42424640201010002E
:103B0C00181800000000001C225A555555552D421E
:103B1C00221C00000000000808181414243C224247
:103B2C0042E700000000001F2222221E22424242D5
:103B3C00221F00000000007C4242010101010142F1
:103B4C00221C00000000001F22424242424242421C
:103B5C00221F00000000003F4212121E12120242ED
:103B6C00423F00000000003F4212121E12120202DD
:103B7C00020700000000003C2222010101712122F9
:103B8C00221C0000000000E7424242427E424242B8
:103B9C0042E700000000003E080808080808080872
:103BAC00083E00000000007C1010101010101010C7
:103BBC001010110F0000007722120A0E0A121222A6
:103BCC002277000000000007020202020202020239
:103BDC00427F000000000077363636362A2A2A2A21
:103BEC002A6B0000000000E346464A4A52525262D9
:103BFC00624700000000001C22414141414141410B
:103C0C00221C00000000003F424242423E020202DF
:103C1C00020700000000001C2241414141414D536C
:103C2C00321C60000000003F4242423E121222222F
:103C3C0042C700000000007C4242020418204042AF
:103C4C00423E00000000007F4908080808080808E8
:103C5C00081C0000000000E742424242424242423D
:103C6C00423C0000000000E74242222424141418B5
:103C7C00080800000000006B494949495555362297
:103C8C0022220000000000E74224241818182424E3
:103C9C0042E70000000000772222141408080808EC
:103CAC00081C00000000007E2120101008040442B3
:103CBC00423F0000007808080808080808080808AF
:103CCC0008087800000002020404080808101020FC
:103CDC0020204040001E101010101010101010105A
:103CEC0010101E000038440000000000000000000E
:103CFC0000000000000000000000000000000000B8
:103D0C00000000FF0006080000000000000000009A
:103D1C0000000000000000000000003C427844421B
:103D2C0042FC0000000000030202021A264242423A
:103D3C00261A0000000000000000003844020202B5
:103D4C004438000000000060404040784442424249
:103D5C0064D80000000000000000003C427E02021B
:103D6C00423C0000000000F08808087E08080808A3
:103D7C00083E0000000000000000007C22221C0213
:103D8C003C42423C000000030202023A46424242DC
:103D9C0042E700000000000C0C00000E08080808A8
:103DAC00083E0000000000303000003820202020A9
:103DBC002020221E0000000302020272120A1612B8
:103DCC00227700000000000E080808080808080800
:103DDC00083E0000000000000000007F92929292CA
:103DEC0092B70000000000000000003B4642424237
:103DFC0042E70000000000000000003C424242424A
:103E0C00423C0000000000000000001B2642424221
:103E1C00221E0207000000000000007844424242CB
:103E2C00447840E000000000000000774C040404DB
:103E3C00041F0000000000000000007C42023C4017
:103E4C00423E0000000000000008083E0808080878
:103E5C0008300000000000000000006342424242B3
:103E6C0062DC000000000000000000E74224241483
:103E7C000808000000000000000000EB49495555FF
:103E8C002222000000000000000000762418181800
:103E9C00246E000000000000000000E742242414FF
:103EAC0018080807000000000000007E2210080817
:103EBC00447E000000C02020202020102020202044
:103ECC002020C00010101010101010101010101026
:103EDC001010101000060808080808100808080838
:103EEC00080806000C32C2000000000000000000B0
:103EFC00000000000000000000000000002F000087
:103F0C0000000700070000147F147F1400242A7F90
:103F1C002A1200626408132300364955225000000F
:103F2C000503000000001C224100000041221C007F
:103F3C000014083E08140008083E0808000000A001
:103F4C0060000008080808080000606000000020FD
:103F5C0010080402003E5149453E0000427F4000DB
:103F6C00004261514946002141454B310018141261
:103F7C007F10002745454539003C4A49493000012E
:103F8C007109050300364949493600064949291E7D
:103F9C0000003636000000005636000000081422DF
:103FAC0041000014141414140000412214080002DF
:103FBC000151090600324959513E007C1211127C04
:103FCC00007F49494936003E41414122007F414131
:103FDC00221C007F49494941007F09090901003E23
:103FEC004149497A007F0808087F0000417F410061
:103FFC00002040413F01007F08142241007F4040D7
:10400C004040007F020C027F007F0408107F003EBE
:10401C004141413E007F09090906003E4151215EA4
:10402C00007F091929460046494949310001017FA1
:10403C000101003F4040403F001F2040201F003F37
:10404C004038403F006314081463000708700807E9
:10405C0000615149454300007F41410000552A55FC
:10406C002A55000041417F00000402010204004077
:10407C004040404000000102040000205454547899
:10408C00007F4844443800384444442000384444B9
:10409C00487F00385454541800087E090102001857
:1040AC00A4A4A47C007F080404780000447D400094
:1040BC00004080847D00007F102844000000417F78
:1040CC004000007C04180478007C08040478003854
:1040DC004444443800FC242424180018242418FCDC
:1040EC00007C0804040800485454542000043F4445
:1040FC004020003C4040207C001C2040201C003C08
:10410C004030403C004428102844001CA0A0A07C57
:10411C00004464544C4414141414141453746172F5
:10412C007420404368697049443D253032580A0078
:10413C006E6F7720535437373839763300000000D0
:10414C006E6F77205354373733355300466F6E7488
:10415C00203136006C6F6F702025640A000000005F
:10416C0030DFFFFF58DFFFFF80DFFFFF98DFFFFF2F
:10417C00B2DFFFFFC2DFFFFFEADFFFFF12E0FFFF4E
:10418C002AE0FFFF44E0FFFF0000000000000000F9
:10419C000000000000000000000000000000000013
:1041AC000000000000000000000000000000000003
:1041BC0000000000000000000000000000000000F3
:1041CC0000000000000000000000000000000000E3
:1041DC0000000000000000000000000000000000D3
:1041EC000000000000000000232D302B20000000F8
:1041FC00686C4C00656667454647000030313233C9
:10420C0034353637383941424344454600000000C6
:10421C003031323334353637383961626364656630
:10422C00000000000C0600009C3400001008000088
:10423C001039000008060000003F0000004000207C
:10424C0000000000B4410000D44100009441000083
:10425C000000000000000000000000000000000052
:10426C000000000000000000000000000000000042
:10427C000000000000000000000000000000000032
:10428C000000000000000000000000000000000022
:10429C000000000000000000000000000000000012
:1042AC0040010000F0000000B84000200040002059
:00000001FF
